S01200004750535F5072756562612E737265636A
S113000071C000008EC000008CC000008AC00000D7
S113001088C0000086C0000084C0000082C00000C8
S113002080C000007EC000007CC000007AC00000D8
S113003078C0000076C0000074C0000072C00000E8
S113004070C000006EC000006CC000006AC00000F8
S113005068C0000066C0000064C0000062C0000008
S113006060C000005EC000005CC000005AC0000018
S113007058C0000056C0000054C0000052C0000028
S113008050C000004EC000004CC000004AC0000038
S113009048C0000046C0000044C0000042C0000048
S11300A040C000003EC000003CC000003AC0000058
S11300B038C0000036C0000034C0000032C0000068
S11300C030C000002EC000002CC000002AC0000078
S11300D028C0000026C0000024C0000022C0000088
S11300E020C0000011241FBECFEFD1E2DEBFCDBF80
S11300F000E00CBF13E0A0E0B2E0E6ECF9E000E0C1
S11301000BBF02C007900D92A233B107D9F726E0C6
S1130110A2E3B3E001C01D92A835B207E1F7E8D32A
S113012050C46ECF8130E1F030F0823071F1833011
S113013009F440C00895E0ECF0E08081826080839F
S11301401092C5008FEC8093C400E1ECF0E0808154
S113015088698083E2ECF0E0808186608083089582
S1130160E8ECF0E08081826080831092CD008FEC17
S11301708093CC00E9ECF0E0808188698083EAEC2C
S1130180F0E08081866080830895E0EDF0E0808176
S1130190826080831092D50083E38093D400E1EDE4
S11301A0F0E0808188698083E2EDF0E08081866000
S11301B080830895E0E3F1E080818260808310927F
S11301C035018FEC80933401E1E3F1E080818869AB
S11301D08083E2E3F1E0808186608083089581304A
S11301E071F028F0823099F08330C9F00895E0EC82
S11301F0F0E0808185FFFDCF6093C6000895E8ECB0
S1130200F0E0808185FFFDCF6093CE000895E0ED9E
S1130210F0E0808185FFFDCF6093D6000895E0E390
S1130220F1E0808185FFFDCF609336010895FC01E4
S1130230E05CFF4F40815181329620813181421729
S1130240530779F020813181DC01A20FB31F8C9117
S1130250208131812F5F3F4F2F73332731832083D8
S113026008958FEF0895CF93DF93CDB7DEB7C454CD
S1130270D1090FB6F894DEBF0FBECDBF813081F037
S113028028F08230B9F08330F9F027C084E4E2E04A
S1130290F4E0DE01119601900D928A95E1F71DC0FC
S11302A084E4EEEBF3E0DE01119601900D928A9561
S11302B0E1F713C084E4EAE7F3E0DE01119601906C
S11302C00D928A95E1F709C084E4E6E3F3E0DE01E8
S11302D0119601900D928A95E1F723968EAD9FAD0C
S11302E0239725962EAD3FAD2597821B8F73CC5B4C
S11302F0DF4F0FB6F894DEBF0FBECDBFDF91CF91B5
S113030008951F93CF93DF93EB012196FB01608146
S1130310662331F0182F812F62DF69916111FBCFC1
S1130320DF91CF911F9108951F93CF93DF93182FDF
S1130330EB012196FB016081662329F0812F4FDFB9
S113034069916111FBCF6DE0812F49DF6AE0812F54
S113035046DFDF91CF911F910895CF92DF92EF9204
S1130360FF920F931F93CF93DF93C82F7B0165EB0D
S113037070E082E0C6DF62E670E082E0C2DFCC2398
S1130380C1F08701C150CC2ED12C8FEFC81AD80AE6
S1130390CE0CDF1CF12CC0E0F801D1918F016D2F40
S11303A070E082E0AEDFCD0FFC0E0C151D05A1F749
S11303B002C0F12CC0E06C2F70E082E0A2DF6F2D50
S11303C070E082E09EDFDF91CF911F910F91FF904B
S11303D0EF90DF90CF900895CF93DF93CDB7DEB742
S11303E027970FB6F894DEBF0FBECDBF6130A9F4D6
S11303F096E0998391E09A8323E02B831C829D836A
S11304008E839F8387E090E09093500480934F0401
S1130410BE016F5F7F4FA1DF14C096E0998391E026
S11304209A8323E02B831C829D838E831F8287E023
S113043090E09093500480934F04BE016F5F7F4F10
S11304408CDF27960FB6F894DEBF0FBECDBFDF91C9
S1130450CF910895EF92FF921F93CF93DF93CDB77F
S1130460DEB72E970FB6F894DEBF0FBECDBF2AE0DD
S1130470AE014F5F5F4F4DD2CE0101967C0110E07B
S11304801F5FF70161917F0170E080E03ADF173070
S1130490B9F760E072E080E034DF87E090E01F5F4E
S11304A0E1E0F0E0EC0FFD1FE80FF91F608170E060
S11304B080E027DF812F90E08E30910584F32E9623
S11304C00FB6F894DEBF0FBECDBFDF91CF911F9161
S11304D0FF90EF90089580E025DE82E023DE61E066
S11304E082E07ADF61E086E077DF60E082E374DF58
S11304F060E082E171DF60E083E06EDF60E084E071
S11305006BDF60E081E368DF62E072E080E00CCFE3
S11305100895CF93DF93CDB7DEB72A970FB6F8943B
S1130520DEBF0FBECDBF68E172E080E0EADE8091FD
S113053053064AE0BE016F5F7F4F90E0E0D1BC01FB
S113054080E0F2DE6FE172E080E0DBDE809156064F
S11305504AE0BE016F5F7F4F90E0D1D1BC0180E0E3
S1130560E3DE65E272E080E0CCDE4AE0BE016F5F6C
S11305707F4F80914A0490914B04C1D1BC0180E02B
S1130580D3DE6EE272E080E0BCDE80914C044AE08F
S1130590BE016F5F7F4F90E0B2D1BC0180E0C4DE4A
S11305A065E372E080E0ADDE809157064AE0BE016B
S11305B06F5F7F4F90E0A3D1BC0180E0B5DE2A9647
S11305C00FB6F894DEBF0FBECDBFDF91CF91089573
S11305D00F931F93CF93DF93CDB7DEB76E970FB60C
S11305E0F894DEBF0FBECDBF10924D0482E03BDE17
S11305F0882309F472C18AE793E019DE80934604E4
S113060090914D04911109C010925606109257060C
S1130610853B19F481E080934D046BE372E080E044
S113062083DE80914D04813051F4809146048236FA
S113063021F482E080934D0402C010924D0469E4D9
S113064072E080E071DE80914D04823089F49091F3
S113065046049093550680915606890F809356065A
S113066090915706890F8093570683E080934D0439
S113067067E572E080E058DE80914D04833089F4B0
S11306809091460490934E0480915606890F80936E
S1130690560690915706890F8093570684E08093FD
S11306A04D0465E672E080E03FDE80914D048430C5
S11306B0A9F490914604292F30E030934B04209301
S11306C04A0480915606890F8093560690915706E6
S11306D0890F8093570685E080934D0463E772E0A9
S11306E080E022DE80914D04853011F5909146041E
S11306F020914A0430914B04392B30934B042093BE
S11307004A0480915606890F8093560690915706A5
S1130710890F80935706109252041092510421308D
S1130720324020F486E080934D0402C010924D04C0
S113073061E872E080E0F8DD80914D04863029F5AF
S11307402091510430915204A9014F5F5F4F50939F
S113075052044093510490914604F901ED5AFB4F21
S1130760908380915606890F809356069091570680
S1130770890F8093570680914A0490914B0448173F
S1130780590718F087E080934D046FE872E080E029
S1130790CBDD80914D04873039F4809146048093F9
S11307A0530688E080934D046DE972E080E0BCDD7F
S11307B080914D04883009F090C080914604809364
S11307C04C04A7DE9091560680915306981383C07B
S11307D09091570680914C0498137DC068EB72E0A9
S11307E080E0A2DD6AEC72E080E08BDD809155064A
S11307F04AE0BE016B5E7F4F90E081D0BC0180E097
S113080093DD80915506813009F065C061ED72E099
S113081080E08ADD8091530490915404A0915504A2
S1130820B0915604409132035091330360913403E4
S113083070913503481759076A077B0741F0809385
S1130840320390933303A0933403B093350365EEDE
S113085072E080E056DD80914E044AE0BE01655F9F
S11308607F4F90E04CD0BC0180E05EDD80914E046F
S11308708230B9F46AEE72E080E043DD03E514E00F
S1130880F8016085718582859385E4DD6EEE72E002
S113089080E037DDF8016481758186819781DADD36
S11308A01AC08630C1F462EF72E080E03DDD6AE098
S11308B073E080E026DD60916B0470916C0480919C
S11308C06D0490916E042AE0AE014F5F5F4F21D01A
S11308D0BC0180E029DD10924D046E960FB6F894A9
S11308E0DEBF0FBECDBFDF91CF911F910F91089551
S11308F0F2DD66E173E080E017DD6ADEFECFBB2740
S11309004A3031F4992322F4BDE2909581959F4FAA
S113091030C0BB272A3051F4992342F4BDE29095AC
S11309208095709561957F4F8F4F9F4F01C0BB2776
S1130930FA01A62F6217710581059105330B30FB6F
S113094066F0AA27660F771F881F991FAA1FA21790
S113095010F0A21B63953850A9F7A05DAA3308F0E4
S1130960A95DA19336F7B111B1931082CA0119C0E0
S1130970BB27FB015527AA27880F991FAA1FA41775
S113098010F0A41B83955051B9F7A05DAA3308F069
S1130990A95DA193009779F7B111B1931192CB019D
S11309A000C0DC01FC01672F71917723E1F73297D6
S11309B004C07C916D9370836291AE17BF07C8F336
S10909C00895F894FFCF36
S11309C62E0046696E205365747570204750532077
S11309D6792055617274680063686B313A2000634C
S11309E66B313A20006C656E6774683A2000636860
S11309F66B323A2000636B323A200046696E6973A3
S1130A0668205374657020300046696E69736820E7
S1130A165374657020310046696E69736820537497
S1130A26657020320046696E697368205374657078
S1130A3620330046696E69736820537465702034E8
S1130A460046696E697368205374657020350046E4
S1130A56696E697368205374657020360046696E42
S1130A6669736820537465702037202846696E615F
S1130A766C20537465702900456E74726521206379
S1130A866865636B4F6B3D312000636F64653A2084
S1130A9600496E67726573E9206120636F64653D82
S1130AA6307830310049643A2000583A2000593AE7
S1130AB62000496E67726573E92061206964203DF0
S1130AC63D20534F4C5F4D534700554C4F4E4728DE
S1130AD63234293A2000416361626120444520543E
S1130AE645524D494E415220454C2053455455508C
S1050AF60000FA
S9030000FC
