S01200004750535F5072756562612E737265636A
S113000071C000008EC000008CC000008AC00000D7
S113001088C0000086C0000084C0000082C00000C8
S113002080C000007EC000007CC000007AC00000D8
S113003078C0000076C0000074C0000072C00000E8
S113004070C000006EC000006CC000006AC00000F8
S113005068C0000066C0000064C0000062C0000008
S113006060C000005EC000005CC000005AC0000018
S113007058C0000056C0000054C0000052C0000028
S113008050C000004EC000004CC000004AC0000038
S113009048C0000046C0000044C0000042C0000048
S11300A040C000003EC000003CC000003AC0000058
S11300B038C0000036C0000034C0000032C0000068
S11300C030C000002EC000002CC000002AC0000078
S11300D028C0000026C0000024C0000022C0000088
S11300E020C0000011241FBECFEFD1E2DEBFCDBF80
S11300F000E00CBF12E0A0E0B2E0EAE3F9E000E0C7
S11301000BBF02C007900D92A43BB107D9F725E0BD
S1130110A4EBB2E001C01D92AA3DB207E1F7A2D35D
S11301200AC46ECF8130E1F030F0823071F1833057
S113013009F440C00895E0ECF0E08081826080839F
S11301401092C5008FEC8093C400E1ECF0E0808154
S113015088698083E2ECF0E0808186608083089582
S1130160E8ECF0E08081826080831092CD008FEC17
S11301708093CC00E9ECF0E0808188698083EAEC2C
S1130180F0E08081866080830895E0EDF0E0808176
S1130190826080831092D50083E38093D400E1EDE4
S11301A0F0E0808188698083E2EDF0E08081866000
S11301B080830895E0E3F1E080818260808310927F
S11301C035018FEC80933401E1E3F1E080818869AB
S11301D08083E2E3F1E0808186608083089581304A
S11301E071F028F0823099F08330C9F00895E0EC82
S11301F0F0E0808185FFFDCF6093C6000895E8ECB0
S1130200F0E0808185FFFDCF6093CE000895E0ED9E
S1130210F0E0808185FFFDCF6093D6000895E0E390
S1130220F1E0808185FFFDCF609336010895FC01E4
S1130230E05CFF4F40815181329620813181421729
S1130240530779F020813181DC01A20FB31F8C9117
S1130250208131812F5F3F4F2F73332731832083D8
S113026008958FEF0895CF93DF93CDB7DEB7C454CD
S1130270D1090FB6F894DEBF0FBECDBF813081F037
S113028028F08230B9F08330F9F027C084E4E4E840
S1130290F3E0DE01119601900D928A95E1F71DC0FD
S11302A084E4E0E4F3E0DE01119601900D928A9576
S11302B0E1F713C084E4ECEFF2E0DE011196019063
S11302C00D928A95E1F709C084E4E8EBF2E0DE01DF
S11302D0119601900D928A95E1F723968EAD9FAD0C
S11302E0239725962EAD3FAD2597821B8F73CC5B4C
S11302F0DF4F0FB6F894DEBF0FBECDBFDF91CF91B5
S113030008951F93CF93DF93EB012196FB01608146
S1130310662331F0182F812F62DF69916111FBCFC1
S1130320DF91CF911F9108951F93CF93DF93182FDF
S1130330EB012196FB016081662329F0812F4FDFB9
S113034069916111FBCF6DE0812F49DF6AE0812F54
S113035046DFDF91CF911F910895CF92DF92EF9204
S1130360FF920F931F93CF93DF93C82F7B0165EB0D
S113037070E082E0C6DF62E670E082E0C2DFCC2398
S1130380C1F08701C150CC2ED12C8FEFC81AD80AE6
S1130390CE0CDF1CF12CC0E0F801D1918F016D2F40
S11303A070E082E0AEDFCD0FFC0E0C151D05A1F749
S11303B002C0F12CC0E06C2F70E082E0A2DF6F2D50
S11303C070E082E09EDFDF91CF911F910F91FF904B
S11303D0EF90DF90CF900895CF93DF93CDB7DEB742
S11303E027970FB6F894DEBF0FBECDBF6130A9F4D6
S11303F096E0998391E09A8323E02B831C829D836A
S11304008E839F8387E090E09093D2038093D103FF
S1130410BE016F5F7F4FA1DF14C096E0998391E026
S11304209A8323E02B831C829D838E831F8287E023
S113043090E09093D2038093D103BE016F5F7F4F0E
S11304408CDF27960FB6F894DEBF0FBECDBFDF91C9
S1130450CF910895EF92FF921F93CF93DF93CDB77F
S1130460DEB72E970FB6F894DEBF0FBECDBF2AE0DD
S1130470AE014F5F5F4F07D2CE0101967C0110E0C1
S11304801F5FF70161917F0170E080E03ADF173070
S1130490B9F760E072E080E034DF87E090E01F5F4E
S11304A0E1E0F0E0EC0FFD1FE80FF91F608170E060
S11304B080E027DF812F90E08E30910584F32E9623
S11304C00FB6F894DEBF0FBECDBFDF91CF911F9161
S11304D0FF90EF90089580E025DE82E023DE61E066
S11304E082E07ADF61E086E077DF62E072E080E05C
S11304F01BCF0895CF93DF93CDB7DEB72A970FB6FE
S1130500F894DEBF0FBECDBF82E0ADDE882309F4D0
S1130510AFC08CEF92E08BDE8093C803853B39F04B
S11305208CEF92E084DE8093C803853BC9F78CEF9F
S113053092E07DDE8093C8038236C9F78CEF92E0A7
S113054076DE8093C8038093D7059091D805890FF0
S11305508093D8059091D905890F8093D9058CEFA4
S113056092E065DE8093C8038093D0039091D80510
S1130570890F8093D8059091D905890F8093D90567
S11305808CEF92E054DE8093C803282F30E0309340
S1130590CD032093CC039091D805890F8093D8057F
S11305A09091D905890F8093D9058CEF92E03FDEB5
S11305B08093C8032091CC033091CD03382B309322
S11305C0CD032093CC039091D805890F8093D8054F
S11305D09091D905890F8093D9051092D403109274
S11305E0D3032130324008F09EC08CEF92E01FDE2E
S11305F08093C8032091D3033091D4038091CC031A
S11306009091CD032817390728F58CEF92E00FDE7F
S11306108093C8032091D3033091D403A9014F5F81
S11306205F4F5093D4034093D303F901EB52FC4F33
S113063080839091D805890F8093D8059091D9052E
S1130640890F8093D9058091CC039091CD034817ED
S11306505907D8F28CEF92E0EADD8093C8038093C7
S1130660D5058CEF92E0E3DD8093C8038093CE033D
S113067068E172E080E045DE8091D5054AE0BE0184
S11306806F5F7F4F90E0F5D0BC0180E04DDE6FE1FD
S113069072E080E036DE8091D8054AE0BE016F5FEB
S11306A07F4F90E0E6D0BC0180E03EDE65E272E080
S11306B080E027DE4AE0BE016F5F7F4F8091CC036C
S11306C09091CD03D6D0BC0180E02EDE6EE272E0C4
S11306D080E017DE8091CE034AE0BE016F5F7F4F5A
S11306E090E0C7D0BC0180E01FDE65E372E080E0EB
S11306F008DE8091D9054AE0BE016F5F7F4F90E02C
S1130700B8D0BC0180E010DE9091D8058091D50569
S113071098130BC081E02091D9059091CE0329173D
S113072029F080E003C080E001C080E02A960FB683
S1130730F894DEBF0FBECDBFDF91CF9108950F9324
S11307401F93CF93DF93CDB7DEB76E970FB6F894B0
S1130750DEBF0FBECDBFCEDE882309F478C06BE3C5
S113076072E080E0E1DD6DE472E080E0CADD80915A
S1130770D7054AE0BE016B5E7F4F90E07AD0BC01A2
S113078080E0D2DD8091D705813009F060C064E556
S113079072E080E0C9DD8091D5039091D603A091E9
S11307A0D703B091D8034091B4025091B50260913F
S11307B0B6027091B702481759076A077B0741F0E0
S11307C08093B4029093B502A093B602B093B7029B
S11307D068E672E080E095DD8091D7054AE0BE01CD
S11307E0655F7F4F90E045D0BC0180E09DDD809146
S11307F0D0038230B9F46DE672E080E082DD05ED6D
S113080013E0F801608571858285938523DE61E7B5
S113081072E080E076DDF8016481758186819781DC
S113082019DE15C0863099F465E772E080E07CDD5E
S11308306DE872E080E065DD8091D7054AE0BE0195
S11308406F5F7F4F90E015D0BC0180E06DDD6E9648
S11308500FB6F894DEBF0FBECDBFDF91CF911F91CD
S11308600F91089538DE69E972E080E05DDD67DFAD
S1130870FECFBB274A3031F4992322F4BDE2909590
S113088081959F4F30C0BB272A3051F4992342F4FD
S1130890BDE290958095709561957F4F8F4F9F4FE6
S11308A001C0BB27FA01A62F6217710581059105C6
S11308B0330B30FB66F0AA27660F771F881F991F3A
S11308C0AA1FA21710F0A21B63953850A9F7A05DC8
S11308D0AA3308F0A95DA19336F7B111B193108240
S11308E0CA0119C0BB27FB015527AA27880F991FE6
S11308F0AA1FA41710F0A41B83955051B9F7A05D4B
S1130900AA3308F0A95DA193009779F7B111B193C7
S11309101192CB0100C0DC01FC01672F7191772398
S1130920E1F7329704C07C916D9370836291AE17A6
S10D0930BF07C8F30895F894FFCF41
S113093A2E0046696E205365747570204750532003
S113094A792055617274680063686B313A200063D8
S113095A6B313A20006C656E6774683A20006368EC
S113096A6B323A2000636B323A2000456E7472652A
S113097A2120636865636B4F6B3D312000636F64AC
S113098A653A2000496E67726573E9206120636FD6
S113099A64653D307830310049643A2000583A2081
S11309AA00593A2000496E67726573E9206120692B
S11309BA64203D3D20534F4C5F4D534700554C4FE7
S11309CA4E47283234293A20004163616261204447
S11309DA45205445524D494E415220454C205345D9
S10709EA545550000C
S9030000FC
