:1000000071C000008EC000008CC000008AC00000DB
:1000100088C0000086C0000084C0000082C00000CC
:1000200080C000007EC000007CC000007AC00000DC
:1000300078C0000076C0000074C0000072C00000EC
:1000400070C000006EC000006CC000006AC00000FC
:1000500068C0000066C0000064C0000062C000000C
:1000600060C000005EC000005CC000005AC000001C
:1000700058C0000056C0000054C0000052C000002C
:1000800050C000004EC000004CC000004AC000003C
:1000900048C0000046C0000044C0000042C000004C
:1000A00040C000003EC000003CC000003AC000005C
:1000B00038C0000036C0000034C0000032C000006C
:1000C00030C000002EC000002CC000002AC000007C
:1000D00028C0000026C0000024C0000022C000008C
:1000E00020C0000011241FBECFEFD1E2DEBFCDBF84
:1000F00000E00CBF13E0A0E0B2E0EAE8F9E000E0C5
:100100000BBF02C007900D92A633B107D9F726E0C6
:10011000A6E3B3E001C01D92AC35B207E1F7CAD344
:1001200032C46ECF8130E1F030F0823071F1833033
:1001300009F440C00895E0ECF0E0808182608083A3
:100140001092C5008FEC8093C400E1ECF0E0808158
:1001500088698083E2ECF0E0808186608083089586
:10016000E8ECF0E08081826080831092CD008FEC1B
:100170008093CC00E9ECF0E0808188698083EAEC30
:10018000F0E08081866080830895E0EDF0E080817A
:10019000826080831092D50083E38093D400E1EDE8
:1001A000F0E0808188698083E2EDF0E08081866004
:1001B00080830895E0E3F1E0808182608083109283
:1001C00035018FEC80933401E1E3F1E080818869AF
:1001D0008083E2E3F1E0808186608083089581304E
:1001E00071F028F0823099F08330C9F00895E0EC86
:1001F000F0E0808185FFFDCF6093C6000895E8ECB4
:10020000F0E0808185FFFDCF6093CE000895E0EDA2
:10021000F0E0808185FFFDCF6093D6000895E0E394
:10022000F1E0808185FFFDCF609336010895FC01E8
:10023000E05CFF4F4081518132962081318142172D
:10024000530779F020813181DC01A20FB31F8C911B
:10025000208131812F5F3F4F2F73332731832083DC
:1002600008958FEF0895CF93DF93CDB7DEB7C454D1
:10027000D1090FB6F894DEBF0FBECDBF813081F03B
:1002800028F08230B9F08330F9F027C084E4E6E04A
:10029000F4E0DE01119601900D928A95E1F71DC000
:1002A00084E4E2ECF3E0DE01119601900D928A9570
:1002B000E1F713C084E4EEE7F3E0DE01119601906C
:1002C0000D928A95E1F709C084E4EAE3F3E0DE01E8
:1002D000119601900D928A95E1F723968EAD9FAD10
:1002E000239725962EAD3FAD2597821B8F73CC5B50
:1002F000DF4F0FB6F894DEBF0FBECDBFDF91CF91B9
:1003000008951F93CF93DF93EB012196FB0160814A
:10031000662331F0182F812F62DF69916111FBCFC5
:10032000DF91CF911F9108951F93CF93DF93182FE3
:10033000EB012196FB016081662329F0812F4FDFBD
:1003400069916111FBCF6DE0812F49DF6AE0812F58
:1003500046DFDF91CF911F910895CF92DF92EF9208
:10036000FF920F931F93CF93DF93C82F7B0165EB11
:1003700070E082E0C6DF62E670E082E0C2DFCC239C
:10038000C1F08701C150CC2ED12C8FEFC81AD80AEA
:10039000CE0CDF1CF12CC0E0F801D1918F016D2F44
:1003A00070E082E0AEDFCD0FFC0E0C151D05A1F74D
:1003B00002C0F12CC0E06C2F70E082E0A2DF6F2D54
:1003C00070E082E09EDFDF91CF911F910F91FF904F
:1003D000EF90DF90CF900895CF93DF93CDB7DEB746
:1003E00027970FB6F894DEBF0FBECDBF6130A9F4DA
:1003F00096E0998391E09A8323E02B831C829D836E
:100400008E839F8387E090E09093540480935304FD
:10041000BE016F5F7F4FA1DF14C096E0998391E02A
:100420009A8323E02B831C829D838E831F8287E027
:1004300090E09093540480935304BE016F5F7F4F0C
:100440008CDF27960FB6F894DEBF0FBECDBFDF91CD
:10045000CF910895EF92FF921F93CF93DF93CDB783
:10046000DEB72E970FB6F894DEBF0FBECDBF2AE0E1
:10047000AE014F5F5F4F2FD2CE0101967C0110E09D
:100480001F5FF70161917F0170E080E03ADF173074
:10049000B9F760E072E080E034DF87E090E01F5F52
:1004A000E1E0F0E0EC0FFD1FE80FF91F608170E064
:1004B00080E027DF812F90E08E30910584F32E9627
:1004C0000FB6F894DEBF0FBECDBFDF91CF911F9165
:1004D000FF90EF90089580E025DE82E023DE61E06A
:1004E00082E07ADF61E086E077DF62E072E080E060
:1004F0001BCF0895CF93DF93CDB7DEB72A970FB602
:10050000F894DEBF0FBECDBF82E0ADDE882309F4D4
:10051000D7C08EE793E08BDE80934A04853B39F0A9
:100520008EE793E084DE80934A04853BC9F768E157
:1005300072E080E0F9DE80914A04823639F08EE77D
:1005400093E075DE80934A048236C9F766E272E072
:1005500080E0EADE8EE793E06ADE80934A048093CF
:10056000590690915A06890F80935A0690915B061E
:10057000890F80935B0664E372E080E0D5DE8EE74E
:1005800093E055DE80934A048093520490915A067A
:10059000890F80935A0690915B06890F80935B06C2
:1005A00062E472E080E0C0DE8EE793E040DE80939C
:1005B0004A04282F30E030934F0420934E0490914A
:1005C0005A06890F80935A0690915B06890F809393
:1005D0005B0660E572E080E0A7DE8EE793E027DE51
:1005E00080934A0420914E0430914F04382B30936D
:1005F0004F0420934E0490915A06890F80935A0617
:1006000090915B06890F80935B06109256041092BE
:1006100055042130324008F0AEC06EE572E080E053
:1006200083DE8EE793E003DE80934A042091550435
:100630003091560480914E0490914F042817390749
:1006400028F58EE793E0F3DD80934A04209155046A
:1006500030915604A9014F5F5F4F50935604409369
:100660005504F901E95AFB4F808390915A06890F8E
:1006700080935A0690915B06890F80935B06809168
:100680004E0490914F0448175907D8F26CE672E077
:1006900080E04ADE8EE793E0CADD80934A048093CF
:1006A00057066AE772E080E03FDE8EE793E0BFDD49
:1006B00080934A048093500468E872E080E034DE5E
:1006C0006AE972E080E01DDE809157064AE0BE01D3
:1006D0006F5F7F4F90E0F5D0BC0180E025DE61EADE
:1006E00072E080E00EDE80915A064AE0BE016F5F44
:1006F0007F4F90E0E6D0BC0180E016DE67EA72E052
:1007000080E0FFDD4AE0BE016F5F7F4F80914E04C5
:1007100090914F04D6D0BC0180E006DE60EB72E021
:1007200080E0EFDD809150044AE0BE016F5F7F4FB3
:1007300090E0C7D0BC0180E0F7DD67EB72E080E0BD
:10074000E0DD80915B064AE0BE016F5F7F4F90E085
:10075000B8D0BC0180E0E8DD90915A068091570640
:1007600098130BC081E020915B06909150042917EB
:1007700029F080E003C080E001C080E02A960FB637
:10078000F894DEBF0FBECDBFDF91CF9108950F93D8
:100790001F93CF93DF93CDB7DEB76E970FB6F89464
:1007A000DEBF0FBECDBFA6DE882309F478C06DEB97
:1007B00072E080E0B9DD6FEC72E080E0A2DD809154
:1007C00059064AE0BE016B5E7F4F90E07AD0BC01D3
:1007D00080E0AADD80915906813009F060C066EDA5
:1007E00072E080E0A1DD8091570490915804A091BF
:1007F0005904B0915A0440913603509137036091E7
:10080000380370913903481759076A077B0741F08D
:100810008093360390933703A0933803B093390342
:100820006AEE72E080E06DDD809159064AE0BE011B
:10083000655F7F4F90E045D0BC0180E075DD809121
:1008400052048230B9F46FEE72E080E05ADD07E5C1
:1008500014E0F8016085718582859385FBDD63EF87
:1008600072E080E04EDDF8016481758186819781B8
:10087000F1DD15C0863099F467EF72E080E054DD59
:100880006FE073E080E03DDD809159064AE0BE01F3
:100890006F5F7F4F90E015D0BC0180E045DD6E9624
:1008A0000FB6F894DEBF0FBECDBFDF91CF911F9181
:1008B0000F91089510DE6BE173E080E035DD67DFB6
:1008C000FECFBB274A3031F4992322F4BDE2909544
:1008D00081959F4F30C0BB272A3051F4992342F4B1
:1008E000BDE290958095709561957F4F8F4F9F4F9A
:1008F00001C0BB27FA01A62F62177105810591057A
:10090000330B30FB66F0AA27660F771F881F991FED
:10091000AA1FA21710F0A21B63953850A9F7A05D7B
:10092000AA3308F0A95DA19336F7B111B1931082F3
:10093000CA0119C0BB27FB015527AA27880F991F99
:10094000AA1FA41710F0A41B83955051B9F7A05DFE
:10095000AA3308F0A95DA193009779F7B111B1937B
:100960001192CB0100C0DC01FC01672F719177234C
:10097000E1F7329704C07C916D9370836291AE175A
:0A098000BF07C8F30895F894FFCFF5
:10098A002E0046696E2053657475702047505320B7
:10099A00792055617274680046696E6973682053DC
:1009AA0074657020310046696E69736820537465F6
:1009BA007020320046696E6973682053746570202E
:1009CA00330046696E697368205374657020340079
:1009DA0046696E69736820537465702035004669EC
:1009EA006E697368205374657020360046696E69B3
:1009FA007368205374657020370046696E6973689E
:100A0A00205374657020380046696E697368204601
:100A1A00696E616C20537465700063686B313A20AB
:100A2A0000636B313A20006C656E6774683A200087
:100A3A0063686B323A2000636B323A2000456E7469
:100A4A0072652120636865636B4F6B3D31200063DB
:100A5A006F64653A2000496E67726573E920612008
:100A6A00636F64653D307830310049643A2000583C
:100A7A003A2000593A2000496E67726573E920618D
:100A8A00206964203D3D20534F4C5F4D534700552C
:100A9A004C4F4E47283234293A2000416361626143
:100AAA00204445205445524D494E415220454C2040
:060ABA00534554555000A5
:00000001FF
